{
  "_format": "hh-sol-artifact-1",
  "contractName": "FreeMint",
  "sourceName": "contracts/FreeMint.sol",
  "abi": [
    {
      "inputs": [
        {
          "internalType": "string",
          "name": "_name",
          "type": "string"
        },
        {
          "internalType": "string",
          "name": "_symbol",
          "type": "string"
        },
        {
          "internalType": "string",
          "name": "_baseURI",
          "type": "string"
        },
        {
          "internalType": "string",
          "name": "_baseExtension",
          "type": "string"
        },
        {
          "internalType": "uint256",
          "name": "_maxSupply",
          "type": "uint256"
        },
        {
          "internalType": "uint256",
          "name": "_mintLimit",
          "type": "uint256"
        },
        {
          "internalType": "uint256",
          "name": "_startWithTokenId",
          "type": "uint256"
        }
      ],
      "stateMutability": "nonpayable",
      "type": "constructor"
    },
    {
      "inputs": [
        {
          "internalType": "address",
          "name": "sender",
          "type": "address"
        },
        {
          "internalType": "uint256",
          "name": "tokenId",
          "type": "uint256"
        },
        {
          "internalType": "address",
          "name": "owner",
          "type": "address"
        }
      ],
      "name": "ERC721IncorrectOwner",
      "type": "error"
    },
    {
      "inputs": [
        {
          "internalType": "address",
          "name": "operator",
          "type": "address"
        },
        {
          "internalType": "uint256",
          "name": "tokenId",
          "type": "uint256"
        }
      ],
      "name": "ERC721InsufficientApproval",
      "type": "error"
    },
    {
      "inputs": [
        {
          "internalType": "address",
          "name": "approver",
          "type": "address"
        }
      ],
      "name": "ERC721InvalidApprover",
      "type": "error"
    },
    {
      "inputs": [
        {
          "internalType": "address",
          "name": "operator",
          "type": "address"
        }
      ],
      "name": "ERC721InvalidOperator",
      "type": "error"
    },
    {
      "inputs": [
        {
          "internalType": "address",
          "name": "owner",
          "type": "address"
        }
      ],
      "name": "ERC721InvalidOwner",
      "type": "error"
    },
    {
      "inputs": [
        {
          "internalType": "address",
          "name": "receiver",
          "type": "address"
        }
      ],
      "name": "ERC721InvalidReceiver",
      "type": "error"
    },
    {
      "inputs": [
        {
          "internalType": "address",
          "name": "sender",
          "type": "address"
        }
      ],
      "name": "ERC721InvalidSender",
      "type": "error"
    },
    {
      "inputs": [
        {
          "internalType": "uint256",
          "name": "tokenId",
          "type": "uint256"
        }
      ],
      "name": "ERC721NonexistentToken",
      "type": "error"
    },
    {
      "inputs": [],
      "name": "EnforcedPause",
      "type": "error"
    },
    {
      "inputs": [],
      "name": "ExpectedPause",
      "type": "error"
    },
    {
      "inputs": [
        {
          "internalType": "address",
          "name": "owner",
          "type": "address"
        }
      ],
      "name": "OwnableInvalidOwner",
      "type": "error"
    },
    {
      "inputs": [
        {
          "internalType": "address",
          "name": "account",
          "type": "address"
        }
      ],
      "name": "OwnableUnauthorizedAccount",
      "type": "error"
    },
    {
      "anonymous": false,
      "inputs": [
        {
          "indexed": true,
          "internalType": "address",
          "name": "owner",
          "type": "address"
        },
        {
          "indexed": true,
          "internalType": "address",
          "name": "approved",
          "type": "address"
        },
        {
          "indexed": true,
          "internalType": "uint256",
          "name": "tokenId",
          "type": "uint256"
        }
      ],
      "name": "Approval",
      "type": "event"
    },
    {
      "anonymous": false,
      "inputs": [
        {
          "indexed": true,
          "internalType": "address",
          "name": "owner",
          "type": "address"
        },
        {
          "indexed": true,
          "internalType": "address",
          "name": "operator",
          "type": "address"
        },
        {
          "indexed": false,
          "internalType": "bool",
          "name": "approved",
          "type": "bool"
        }
      ],
      "name": "ApprovalForAll",
      "type": "event"
    },
    {
      "anonymous": false,
      "inputs": [
        {
          "indexed": false,
          "internalType": "uint256",
          "name": "_fromTokenId",
          "type": "uint256"
        },
        {
          "indexed": false,
          "internalType": "uint256",
          "name": "_toTokenId",
          "type": "uint256"
        }
      ],
      "name": "BatchMetadataUpdate",
      "type": "event"
    },
    {
      "anonymous": false,
      "inputs": [
        {
          "indexed": false,
          "internalType": "uint256",
          "name": "_tokenId",
          "type": "uint256"
        }
      ],
      "name": "MetadataUpdate",
      "type": "event"
    },
    {
      "anonymous": false,
      "inputs": [
        {
          "indexed": true,
          "internalType": "address",
          "name": "previousOwner",
          "type": "address"
        },
        {
          "indexed": true,
          "internalType": "address",
          "name": "newOwner",
          "type": "address"
        }
      ],
      "name": "OwnershipTransferred",
      "type": "event"
    },
    {
      "anonymous": false,
      "inputs": [
        {
          "indexed": false,
          "internalType": "address",
          "name": "account",
          "type": "address"
        }
      ],
      "name": "Paused",
      "type": "event"
    },
    {
      "anonymous": false,
      "inputs": [
        {
          "indexed": true,
          "internalType": "address",
          "name": "from",
          "type": "address"
        },
        {
          "indexed": true,
          "internalType": "address",
          "name": "to",
          "type": "address"
        },
        {
          "indexed": true,
          "internalType": "uint256",
          "name": "tokenId",
          "type": "uint256"
        }
      ],
      "name": "Transfer",
      "type": "event"
    },
    {
      "anonymous": false,
      "inputs": [
        {
          "indexed": false,
          "internalType": "address",
          "name": "account",
          "type": "address"
        }
      ],
      "name": "Unpaused",
      "type": "event"
    },
    {
      "inputs": [
        {
          "internalType": "address",
          "name": "to",
          "type": "address"
        },
        {
          "internalType": "uint256",
          "name": "tokenId",
          "type": "uint256"
        }
      ],
      "name": "approve",
      "outputs": [],
      "stateMutability": "nonpayable",
      "type": "function"
    },
    {
      "inputs": [
        {
          "internalType": "address",
          "name": "owner",
          "type": "address"
        }
      ],
      "name": "balanceOf",
      "outputs": [
        {
          "internalType": "uint256",
          "name": "",
          "type": "uint256"
        }
      ],
      "stateMutability": "view",
      "type": "function"
    },
    {
      "inputs": [],
      "name": "baseContractURI",
      "outputs": [
        {
          "internalType": "string",
          "name": "",
          "type": "string"
        }
      ],
      "stateMutability": "view",
      "type": "function"
    },
    {
      "inputs": [],
      "name": "baseExtension",
      "outputs": [
        {
          "internalType": "string",
          "name": "",
          "type": "string"
        }
      ],
      "stateMutability": "view",
      "type": "function"
    },
    {
      "inputs": [],
      "name": "baseURI",
      "outputs": [
        {
          "internalType": "string",
          "name": "",
          "type": "string"
        }
      ],
      "stateMutability": "view",
      "type": "function"
    },
    {
      "inputs": [
        {
          "internalType": "address[]",
          "name": "recipients",
          "type": "address[]"
        },
        {
          "internalType": "uint256[]",
          "name": "amounts",
          "type": "uint256[]"
        }
      ],
      "name": "bulkMint",
      "outputs": [],
      "stateMutability": "nonpayable",
      "type": "function"
    },
    {
      "inputs": [
        {
          "internalType": "uint256",
          "name": "tokenId",
          "type": "uint256"
        }
      ],
      "name": "getApproved",
      "outputs": [
        {
          "internalType": "address",
          "name": "",
          "type": "address"
        }
      ],
      "stateMutability": "view",
      "type": "function"
    },
    {
      "inputs": [
        {
          "internalType": "address",
          "name": "owner",
          "type": "address"
        },
        {
          "internalType": "address",
          "name": "operator",
          "type": "address"
        }
      ],
      "name": "isApprovedForAll",
      "outputs": [
        {
          "internalType": "bool",
          "name": "",
          "type": "bool"
        }
      ],
      "stateMutability": "view",
      "type": "function"
    },
    {
      "inputs": [],
      "name": "maxSupply",
      "outputs": [
        {
          "internalType": "uint256",
          "name": "",
          "type": "uint256"
        }
      ],
      "stateMutability": "view",
      "type": "function"
    },
    {
      "inputs": [
        {
          "internalType": "address",
          "name": "to",
          "type": "address"
        },
        {
          "internalType": "uint256",
          "name": "amount",
          "type": "uint256"
        }
      ],
      "name": "mint",
      "outputs": [],
      "stateMutability": "nonpayable",
      "type": "function"
    },
    {
      "inputs": [],
      "name": "mintLimit",
      "outputs": [
        {
          "internalType": "uint256",
          "name": "",
          "type": "uint256"
        }
      ],
      "stateMutability": "view",
      "type": "function"
    },
    {
      "inputs": [],
      "name": "name",
      "outputs": [
        {
          "internalType": "string",
          "name": "",
          "type": "string"
        }
      ],
      "stateMutability": "view",
      "type": "function"
    },
    {
      "inputs": [],
      "name": "owner",
      "outputs": [
        {
          "internalType": "address",
          "name": "",
          "type": "address"
        }
      ],
      "stateMutability": "view",
      "type": "function"
    },
    {
      "inputs": [
        {
          "internalType": "uint256",
          "name": "tokenId",
          "type": "uint256"
        }
      ],
      "name": "ownerOf",
      "outputs": [
        {
          "internalType": "address",
          "name": "",
          "type": "address"
        }
      ],
      "stateMutability": "view",
      "type": "function"
    },
    {
      "inputs": [],
      "name": "pause",
      "outputs": [],
      "stateMutability": "nonpayable",
      "type": "function"
    },
    {
      "inputs": [],
      "name": "paused",
      "outputs": [
        {
          "internalType": "bool",
          "name": "",
          "type": "bool"
        }
      ],
      "stateMutability": "view",
      "type": "function"
    },
    {
      "inputs": [],
      "name": "renounceOwnership",
      "outputs": [],
      "stateMutability": "nonpayable",
      "type": "function"
    },
    {
      "inputs": [
        {
          "internalType": "address",
          "name": "from",
          "type": "address"
        },
        {
          "internalType": "address",
          "name": "to",
          "type": "address"
        },
        {
          "internalType": "uint256",
          "name": "tokenId",
          "type": "uint256"
        }
      ],
      "name": "safeTransferFrom",
      "outputs": [],
      "stateMutability": "nonpayable",
      "type": "function"
    },
    {
      "inputs": [
        {
          "internalType": "address",
          "name": "from",
          "type": "address"
        },
        {
          "internalType": "address",
          "name": "to",
          "type": "address"
        },
        {
          "internalType": "uint256",
          "name": "tokenId",
          "type": "uint256"
        },
        {
          "internalType": "bytes",
          "name": "data",
          "type": "bytes"
        }
      ],
      "name": "safeTransferFrom",
      "outputs": [],
      "stateMutability": "nonpayable",
      "type": "function"
    },
    {
      "inputs": [
        {
          "internalType": "address",
          "name": "operator",
          "type": "address"
        },
        {
          "internalType": "bool",
          "name": "approved",
          "type": "bool"
        }
      ],
      "name": "setApprovalForAll",
      "outputs": [],
      "stateMutability": "nonpayable",
      "type": "function"
    },
    {
      "inputs": [
        {
          "internalType": "string",
          "name": "_newBaseExtension",
          "type": "string"
        }
      ],
      "name": "setBaseExtension",
      "outputs": [],
      "stateMutability": "nonpayable",
      "type": "function"
    },
    {
      "inputs": [
        {
          "internalType": "string",
          "name": "_newBaseURI",
          "type": "string"
        }
      ],
      "name": "setBaseURI",
      "outputs": [],
      "stateMutability": "nonpayable",
      "type": "function"
    },
    {
      "inputs": [
        {
          "internalType": "string",
          "name": "_newBaseContractURI",
          "type": "string"
        }
      ],
      "name": "setContractURI",
      "outputs": [],
      "stateMutability": "nonpayable",
      "type": "function"
    },
    {
      "inputs": [
        {
          "internalType": "uint256",
          "name": "_newMaxSupply",
          "type": "uint256"
        }
      ],
      "name": "setMaxSupply",
      "outputs": [],
      "stateMutability": "nonpayable",
      "type": "function"
    },
    {
      "inputs": [
        {
          "internalType": "uint256",
          "name": "_newMintLimit",
          "type": "uint256"
        }
      ],
      "name": "setMintLimit",
      "outputs": [],
      "stateMutability": "nonpayable",
      "type": "function"
    },
    {
      "inputs": [
        {
          "internalType": "bytes4",
          "name": "interfaceId",
          "type": "bytes4"
        }
      ],
      "name": "supportsInterface",
      "outputs": [
        {
          "internalType": "bool",
          "name": "",
          "type": "bool"
        }
      ],
      "stateMutability": "view",
      "type": "function"
    },
    {
      "inputs": [],
      "name": "symbol",
      "outputs": [
        {
          "internalType": "string",
          "name": "",
          "type": "string"
        }
      ],
      "stateMutability": "view",
      "type": "function"
    },
    {
      "inputs": [
        {
          "internalType": "uint256",
          "name": "tokenId",
          "type": "uint256"
        }
      ],
      "name": "tokenURI",
      "outputs": [
        {
          "internalType": "string",
          "name": "",
          "type": "string"
        }
      ],
      "stateMutability": "view",
      "type": "function"
    },
    {
      "inputs": [],
      "name": "totalSupply",
      "outputs": [
        {
          "internalType": "uint256",
          "name": "",
          "type": "uint256"
        }
      ],
      "stateMutability": "view",
      "type": "function"
    },
    {
      "inputs": [
        {
          "internalType": "address",
          "name": "from",
          "type": "address"
        },
        {
          "internalType": "address",
          "name": "to",
          "type": "address"
        },
        {
          "internalType": "uint256",
          "name": "tokenId",
          "type": "uint256"
        }
      ],
      "name": "transferFrom",
      "outputs": [],
      "stateMutability": "nonpayable",
      "type": "function"
    },
    {
      "inputs": [
        {
          "internalType": "address",
          "name": "newOwner",
          "type": "address"
        }
      ],
      "name": "transferOwnership",
      "outputs": [],
      "stateMutability": "nonpayable",
      "type": "function"
    },
    {
      "inputs": [],
      "name": "unpause",
      "outputs": [],
      "stateMutability": "nonpayable",
      "type": "function"
    },
    {
      "inputs": [],
      "name": "withdraw",
      "outputs": [],
      "stateMutability": "nonpayable",
      "type": "function"
    }
  ],
  "bytecode": "0x60806040523480156200001157600080fd5b506040516200222338038062002223833981016040819052620000349162000299565b338787600062000045838262000400565b50600162000054828262000400565b50506007805460ff19169055506001600160a01b0381166200009157604051631e4fbdf760e01b8152600060048201526024015b60405180910390fd5b6200009c8162000124565b50620000a8856200017e565b600b620000b6858262000400565b50600c839055600d8290556001811115620001145760405162461bcd60e51b815260206004820152601860248201527f496e76616c696420737461727457697468546f6b656e49640000000000000000604482015260640162000088565b60085550620004cc945050505050565b600780546001600160a01b03838116610100818102610100600160a81b031985161790945560405193909204169182907f8be0079c531659141344cd1fd0a4f28419497f9722a3daafe3b4186f6b6457e090600090a35050565b620001886200019a565b600a62000196828262000400565b5050565b6007546001600160a01b03610100909104163314620001cf5760405163118cdaa760e01b815233600482015260240162000088565b565b634e487b7160e01b600052604160045260246000fd5b600082601f830112620001f957600080fd5b81516001600160401b0380821115620002165762000216620001d1565b604051601f8301601f19908116603f01168101908282118183101715620002415762000241620001d1565b81604052838152602092508660208588010111156200025f57600080fd5b600091505b8382101562000283578582018301518183018401529082019062000264565b6000602085830101528094505050505092915050565b600080600080600080600060e0888a031215620002b557600080fd5b87516001600160401b0380821115620002cd57600080fd5b620002db8b838c01620001e7565b985060208a0151915080821115620002f257600080fd5b620003008b838c01620001e7565b975060408a01519150808211156200031757600080fd5b620003258b838c01620001e7565b965060608a01519150808211156200033c57600080fd5b506200034b8a828b01620001e7565b9450506080880151925060a0880151915060c0880151905092959891949750929550565b600181811c908216806200038457607f821691505b602082108103620003a557634e487b7160e01b600052602260045260246000fd5b50919050565b601f821115620003fb576000816000526020600020601f850160051c81016020861015620003d65750805b601f850160051c820191505b81811015620003f757828155600101620003e2565b5050505b505050565b81516001600160401b038111156200041c576200041c620001d1565b62000434816200042d84546200036f565b84620003ab565b602080601f8311600181146200046c5760008415620004535750858301515b600019600386901b1c1916600185901b178555620003f7565b600085815260208120601f198616915b828110156200049d578886015182559484019460019091019084016200047c565b5085821015620004bc5787850151600019600388901b60f8161c191681555b5050505050600190811b01905550565b611d4780620004dc6000396000f3fe608060405234801561001057600080fd5b50600436106101fb5760003560e01c806370a082311161011a5780639e6a1d7d116100ad578063c87b56dd1161007c578063c87b56dd146103dd578063d5abeb01146103f0578063da3ef23f146103f9578063e985e9c51461040c578063f2fde38b1461041f57600080fd5b80639e6a1d7d1461039c578063a22cb465146103af578063b88d4fde146103c2578063c6682862146103d557600080fd5b80638da5cb5b116100e95780638da5cb5b14610362578063938e3d7b1461037857806395d89b411461038b578063996517cf1461039357600080fd5b806370a0823114610337578063715018a61461034a57806380f2152e146103525780638456cb591461035a57600080fd5b806340c10f19116101925780636352211e116101615780636352211e146102f65780636ae459bd146103095780636c0360eb1461031c5780636f8b44b01461032457600080fd5b806340c10f19146102b257806342842e0e146102c557806355f804b3146102d85780635c975abb146102eb57600080fd5b806318160ddd116101ce57806318160ddd1461027d57806323b872dd1461028f5780633ccfd60b146102a25780633f4ba83a146102aa57600080fd5b806301ffc9a71461020057806306fdde0314610228578063081812fc1461023d578063095ea7b314610268575b600080fd5b61021361020e36600461168d565b610432565b60405190151581526020015b60405180910390f35b610230610443565b60405161021f9190611701565b61025061024b366004611714565b6104d5565b6040516001600160a01b03909116815260200161021f565b61027b610276366004611749565b6104fe565b005b6008545b60405190815260200161021f565b61027b61029d366004611773565b61050d565b61027b61059d565b61027b6105e8565b61027b6102c0366004611749565b6105fa565b61027b6102d3366004611773565b610727565b61027b6102e636600461183b565b610742565b60075460ff16610213565b610250610304366004611714565b610756565b61027b6103173660046118d0565b610761565b6102306109cb565b61027b610332366004611714565b610a59565b61028161034536600461193c565b610a66565b61027b610aae565b610230610ac0565b61027b610acd565b60075461010090046001600160a01b0316610250565b61027b61038636600461183b565b610add565b610230610af1565b610281600d5481565b61027b6103aa366004611714565b610b00565b61027b6103bd366004611957565b610b0d565b61027b6103d0366004611993565b610b18565b610230610b30565b6102306103eb366004611714565b610b3d565b610281600c5481565b61027b61040736600461183b565b610d22565b61021361041a366004611a0f565b610d36565b61027b61042d36600461193c565b610d64565b600061043d82610d9f565b92915050565b60606000805461045290611a42565b80601f016020809104026020016040519081016040528092919081815260200182805461047e90611a42565b80156104cb5780601f106104a0576101008083540402835291602001916104cb565b820191906000526020600020905b8154815290600101906020018083116104ae57829003601f168201915b5050505050905090565b60006104e082610dc4565b506000828152600460205260409020546001600160a01b031661043d565b610509828233610dfd565b5050565b6001600160a01b03821661053c57604051633250574960e11b8152600060048201526024015b60405180910390fd5b6000610549838333610e0a565b9050836001600160a01b0316816001600160a01b031614610597576040516364283d7b60e01b81526001600160a01b0380861660048301526024820184905282166044820152606401610533565b50505050565b6105a5610e1f565b6007546040516001600160a01b0361010090920491909116904780156108fc02916000818181858888f193505050501580156105e5573d6000803e3d6000fd5b50565b6105f0610e1f565b6105f8610e52565b565b610602610ea4565b600081116106435760405162461bcd60e51b815260206004820152600e60248201526d125b9d985b1a5908185b5bdd5b9d60921b6044820152606401610533565b600c54816008546106549190611a92565b106106965760405162461bcd60e51b815260206004820152601260248201527113585e081cdd5c1c1b1e481c995858da195960721b6044820152606401610533565b600d54816106a384610a66565b6106ad9190611a92565b11156106f05760405162461bcd60e51b8152602060048201526012602482015271115e18d959591cc81b5a5b9d081b1a5b5a5d60721b6044820152606401610533565b60005b81811015610722576008805461071a91859190600061071183611aa5565b91905055610ec8565b6001016106f3565b505050565b61072283838360405180602001604052806000815250610b18565b61074a610e1f565b600a6105098282611b06565b600061043d82610dc4565b610769610e1f565b610771610ea4565b8281146107cf5760405162461bcd60e51b815260206004820152602660248201527f526563697069656e747320616e6420616d6f756e7473206c656e677468206d696044820152650e6dac2e8c6d60d31b6064820152608401610533565b6000805b828110156108625760008484838181106107ef576107ef611bc6565b90506020020135116108345760405162461bcd60e51b815260206004820152600e60248201526d125b9d985b1a5908185b5bdd5b9d60921b6044820152606401610533565b83838281811061084657610846611bc6565b90506020020135826108589190611a92565b91506001016107d3565b50600c54816008546108749190611a92565b11156108b75760405162461bcd60e51b815260206004820152601260248201527113585e081cdd5c1c1b1e481c995858da195960721b6044820152606401610533565b60005b848110156109c357600d548484838181106108d7576108d7611bc6565b905060200201356109088888858181106108f3576108f3611bc6565b9050602002016020810190610345919061193c565b6109129190611a92565b11156109555760405162461bcd60e51b8152602060048201526012602482015271115e18d959591cc81b5a5b9d081b1a5b5a5d60721b6044820152606401610533565b60005b84848381811061096a5761096a611bc6565b905060200201358110156109ba576109b287878481811061098d5761098d611bc6565b90506020020160208101906109a2919061193c565b6008805490600061071183611aa5565b600101610958565b506001016108ba565b505050505050565b600a80546109d890611a42565b80601f0160208091040260200160405190810160405280929190818152602001828054610a0490611a42565b8015610a515780601f10610a2657610100808354040283529160200191610a51565b820191906000526020600020905b815481529060010190602001808311610a3457829003601f168201915b505050505081565b610a61610e1f565b600c55565b60006001600160a01b038216610a92576040516322718ad960e21b815260006004820152602401610533565b506001600160a01b031660009081526003602052604090205490565b610ab6610e1f565b6105f86000610ee2565b600980546109d890611a42565b610ad5610e1f565b6105f8610f3c565b610ae5610e1f565b60096105098282611b06565b60606001805461045290611a42565b610b08610e1f565b600d55565b610509338383610f79565b610b2384848461050d565b6105973385858585611018565b600b80546109d890611a42565b60606008548210610b865760405162461bcd60e51b8152602060048201526013602482015272151bdad95b881251081a5cc81a5b9d985b1a59606a1b6044820152606401610533565b604080518082019091526001808252602f60f81b6020909201829052600a80549091908290610bb490611a42565b610bbf929150611bdc565b8154610bca90611a42565b8110610bd857610bd8611bc6565b815460011615610bf75790600052602060002090602091828204019190065b9054901a600160f81b026001600160f81b03191614610ca257600a8054610c1d90611a42565b80601f0160208091040260200160405190810160405280929190818152602001828054610c4990611a42565b8015610c965780601f10610c6b57610100808354040283529160200191610c96565b820191906000526020600020905b815481529060010190602001808311610c7957829003601f168201915b50505050509050919050565b6000600a8054610cb190611a42565b905011610ccd576040518060200160405280600081525061043d565b600a610cf9610cdd600585611bef565b15610cf257610ced600585611bef565b611141565b6005611141565b600b604051602001610d0d93929190611c84565b60405160208183030381529060405292915050565b610d2a610e1f565b600b6105098282611b06565b6001600160a01b03918216600090815260056020908152604080832093909416825291909152205460ff1690565b610d6c610e1f565b6001600160a01b038116610d9657604051631e4fbdf760e01b815260006004820152602401610533565b6105e581610ee2565b60006001600160e01b03198216632483248360e11b148061043d575061043d826111d4565b6000818152600260205260408120546001600160a01b03168061043d57604051637e27328960e01b815260048101849052602401610533565b6107228383836001611224565b6000610e1784848461132a565b949350505050565b6007546001600160a01b036101009091041633146105f85760405163118cdaa760e01b8152336004820152602401610533565b610e5a61133f565b6007805460ff191690557f5db9ee0a495bf2e6ff9c91a7834c1ba4fdd244a5e8aa4e537bd38aeae4b073aa335b6040516001600160a01b03909116815260200160405180910390a1565b60075460ff16156105f85760405163d93c066560e01b815260040160405180910390fd5b610509828260405180602001604052806000815250611362565b600780546001600160a01b03838116610100818102610100600160a81b031985161790945560405193909204169182907f8be0079c531659141344cd1fd0a4f28419497f9722a3daafe3b4186f6b6457e090600090a35050565b610f44610ea4565b6007805460ff191660011790557f62e78cea01bee320cd4e420270b5ea74000d11b0c9f74754ebdbfc544b05a258610e873390565b6001600160a01b038216610fab57604051630b61174360e31b81526001600160a01b0383166004820152602401610533565b6001600160a01b03838116600081815260056020908152604080832094871680845294825291829020805460ff191686151590811790915591519182527f17307eab39ab6107e8899845ad3d59bd9653f200f220920489ca2b5937696c31910160405180910390a3505050565b6001600160a01b0383163b1561113a57604051630a85bd0160e11b81526001600160a01b0384169063150b7a029061105a908890889087908790600401611cb7565b6020604051808303816000875af1925050508015611095575060408051601f3d908101601f1916820190925261109291810190611cf4565b60015b6110fe573d8080156110c3576040519150601f19603f3d011682016040523d82523d6000602084013e6110c8565b606091505b5080516000036110f657604051633250574960e11b81526001600160a01b0385166004820152602401610533565b805181602001fd5b6001600160e01b03198116630a85bd0160e11b146109c357604051633250574960e11b81526001600160a01b0385166004820152602401610533565b5050505050565b6060600061114e8361137a565b600101905060008167ffffffffffffffff81111561116e5761116e6117af565b6040519080825280601f01601f191660200182016040528015611198576020820181803683370190505b5090508181016020015b600019016f181899199a1a9b1b9c1cb0b131b232b360811b600a86061a8153600a85049450846111a257509392505050565b60006001600160e01b031982166380ac58cd60e01b148061120557506001600160e01b03198216635b5e139f60e01b145b8061043d57506301ffc9a760e01b6001600160e01b031983161461043d565b808061123857506001600160a01b03821615155b156112fa57600061124884610dc4565b90506001600160a01b038316158015906112745750826001600160a01b0316816001600160a01b031614155b801561128757506112858184610d36565b155b156112b05760405163a9fbf51f60e01b81526001600160a01b0384166004820152602401610533565b81156112f85783856001600160a01b0316826001600160a01b03167f8c5be1e5ebec7d5bd14f71427d1e84f3dd0314c0f7b2291e5b200ac8c7c3b92560405160405180910390a45b505b5050600090815260046020526040902080546001600160a01b0319166001600160a01b0392909216919091179055565b6000611334610ea4565b610e17848484611452565b60075460ff166105f857604051638dfc202b60e01b815260040160405180910390fd5b61136c838361154b565b610722336000858585611018565b60008072184f03e93ff9f4daa797ed6e38ed64bf6a1f0160401b83106113b95772184f03e93ff9f4daa797ed6e38ed64bf6a1f0160401b830492506040015b6d04ee2d6d415b85acef810000000083106113e5576d04ee2d6d415b85acef8100000000830492506020015b662386f26fc10000831061140357662386f26fc10000830492506010015b6305f5e100831061141b576305f5e100830492506008015b612710831061142f57612710830492506004015b60648310611441576064830492506002015b600a831061043d5760010192915050565b6000828152600260205260408120546001600160a01b039081169083161561147f5761147f8184866115b0565b6001600160a01b038116156114bd5761149c600085600080611224565b6001600160a01b038116600090815260036020526040902080546000190190555b6001600160a01b038516156114ec576001600160a01b0385166000908152600360205260409020805460010190555b60008481526002602052604080822080546001600160a01b0319166001600160a01b0389811691821790925591518793918516917fddf252ad1be2c89b69c2b068fc378daa952ba7f163c4a11628f55a4df523b3ef91a4949350505050565b6001600160a01b03821661157557604051633250574960e11b815260006004820152602401610533565b600061158383836000610e0a565b90506001600160a01b03811615610722576040516339e3563760e11b815260006004820152602401610533565b6115bb838383611614565b610722576001600160a01b0383166115e957604051637e27328960e01b815260048101829052602401610533565b60405163177e802f60e01b81526001600160a01b038316600482015260248101829052604401610533565b60006001600160a01b03831615801590610e175750826001600160a01b0316846001600160a01b0316148061164e575061164e8484610d36565b80610e175750506000908152600460205260409020546001600160a01b03908116911614919050565b6001600160e01b0319811681146105e557600080fd5b60006020828403121561169f57600080fd5b81356116aa81611677565b9392505050565b60005b838110156116cc5781810151838201526020016116b4565b50506000910152565b600081518084526116ed8160208601602086016116b1565b601f01601f19169290920160200192915050565b6020815260006116aa60208301846116d5565b60006020828403121561172657600080fd5b5035919050565b80356001600160a01b038116811461174457600080fd5b919050565b6000806040838503121561175c57600080fd5b6117658361172d565b946020939093013593505050565b60008060006060848603121561178857600080fd5b6117918461172d565b925061179f6020850161172d565b9150604084013590509250925092565b634e487b7160e01b600052604160045260246000fd5b600067ffffffffffffffff808411156117e0576117e06117af565b604051601f8501601f19908116603f01168101908282118183101715611808576118086117af565b8160405280935085815286868601111561182157600080fd5b858560208301376000602087830101525050509392505050565b60006020828403121561184d57600080fd5b813567ffffffffffffffff81111561186457600080fd5b8201601f8101841361187557600080fd5b610e17848235602084016117c5565b60008083601f84011261189657600080fd5b50813567ffffffffffffffff8111156118ae57600080fd5b6020830191508360208260051b85010111156118c957600080fd5b9250929050565b600080600080604085870312156118e657600080fd5b843567ffffffffffffffff808211156118fe57600080fd5b61190a88838901611884565b9096509450602087013591508082111561192357600080fd5b5061193087828801611884565b95989497509550505050565b60006020828403121561194e57600080fd5b6116aa8261172d565b6000806040838503121561196a57600080fd5b6119738361172d565b91506020830135801515811461198857600080fd5b809150509250929050565b600080600080608085870312156119a957600080fd5b6119b28561172d565b93506119c06020860161172d565b925060408501359150606085013567ffffffffffffffff8111156119e357600080fd5b8501601f810187136119f457600080fd5b611a03878235602084016117c5565b91505092959194509250565b60008060408385031215611a2257600080fd5b611a2b8361172d565b9150611a396020840161172d565b90509250929050565b600181811c90821680611a5657607f821691505b602082108103611a7657634e487b7160e01b600052602260045260246000fd5b50919050565b634e487b7160e01b600052601160045260246000fd5b8082018082111561043d5761043d611a7c565b600060018201611ab757611ab7611a7c565b5060010190565b601f821115610722576000816000526020600020601f850160051c81016020861015611ae75750805b601f850160051c820191505b818110156109c357828155600101611af3565b815167ffffffffffffffff811115611b2057611b206117af565b611b3481611b2e8454611a42565b84611abe565b602080601f831160018114611b695760008415611b515750858301515b600019600386901b1c1916600185901b1785556109c3565b600085815260208120601f198616915b82811015611b9857888601518255948401946001909101908401611b79565b5085821015611bb65787850151600019600388901b60f8161c191681555b5050505050600190811b01905550565b634e487b7160e01b600052603260045260246000fd5b8181038181111561043d5761043d611a7c565b600082611c0c57634e487b7160e01b600052601260045260246000fd5b500690565b60008154611c1e81611a42565b60018281168015611c365760018114611c4b57611c7a565b60ff1984168752821515830287019450611c7a565b8560005260208060002060005b85811015611c715781548a820152908401908201611c58565b50505082870194505b5050505092915050565b6000611c908286611c11565b8451611ca08183602089016116b1565b611cac81830186611c11565b979650505050505050565b6001600160a01b0385811682528416602082015260408101839052608060608201819052600090611cea908301846116d5565b9695505050505050565b600060208284031215611d0657600080fd5b81516116aa8161167756fea26469706673582212206f27cc49225f52fa76af1ab38316ca133901e127d2316df6a9ff8304ea87319464736f6c63430008160033",
  "linkReferences": {},
  "deployedLinkReferences": {}
}