{
  "_format": "hh-sol-artifact-1",
  "contractName": "Setac",
  "sourceName": "contracts/FreeMint.sol",
  "abi": [
    {
      "inputs": [
        {
          "internalType": "string",
          "name": "_name",
          "type": "string"
        },
        {
          "internalType": "string",
          "name": "_symbol",
          "type": "string"
        },
        {
          "internalType": "string",
          "name": "_baseURI",
          "type": "string"
        },
        {
          "internalType": "string",
          "name": "_baseExtension",
          "type": "string"
        },
        {
          "internalType": "uint256",
          "name": "_maxSupply",
          "type": "uint256"
        },
        {
          "internalType": "uint256",
          "name": "_mintLimit",
          "type": "uint256"
        },
        {
          "internalType": "uint256",
          "name": "_startWithTokenId",
          "type": "uint256"
        }
      ],
      "stateMutability": "nonpayable",
      "type": "constructor"
    },
    {
      "inputs": [
        {
          "internalType": "address",
          "name": "sender",
          "type": "address"
        },
        {
          "internalType": "uint256",
          "name": "tokenId",
          "type": "uint256"
        },
        {
          "internalType": "address",
          "name": "owner",
          "type": "address"
        }
      ],
      "name": "ERC721IncorrectOwner",
      "type": "error"
    },
    {
      "inputs": [
        {
          "internalType": "address",
          "name": "operator",
          "type": "address"
        },
        {
          "internalType": "uint256",
          "name": "tokenId",
          "type": "uint256"
        }
      ],
      "name": "ERC721InsufficientApproval",
      "type": "error"
    },
    {
      "inputs": [
        {
          "internalType": "address",
          "name": "approver",
          "type": "address"
        }
      ],
      "name": "ERC721InvalidApprover",
      "type": "error"
    },
    {
      "inputs": [
        {
          "internalType": "address",
          "name": "operator",
          "type": "address"
        }
      ],
      "name": "ERC721InvalidOperator",
      "type": "error"
    },
    {
      "inputs": [
        {
          "internalType": "address",
          "name": "owner",
          "type": "address"
        }
      ],
      "name": "ERC721InvalidOwner",
      "type": "error"
    },
    {
      "inputs": [
        {
          "internalType": "address",
          "name": "receiver",
          "type": "address"
        }
      ],
      "name": "ERC721InvalidReceiver",
      "type": "error"
    },
    {
      "inputs": [
        {
          "internalType": "address",
          "name": "sender",
          "type": "address"
        }
      ],
      "name": "ERC721InvalidSender",
      "type": "error"
    },
    {
      "inputs": [
        {
          "internalType": "uint256",
          "name": "tokenId",
          "type": "uint256"
        }
      ],
      "name": "ERC721NonexistentToken",
      "type": "error"
    },
    {
      "inputs": [],
      "name": "EnforcedPause",
      "type": "error"
    },
    {
      "inputs": [],
      "name": "ExpectedPause",
      "type": "error"
    },
    {
      "inputs": [
        {
          "internalType": "address",
          "name": "owner",
          "type": "address"
        }
      ],
      "name": "OwnableInvalidOwner",
      "type": "error"
    },
    {
      "inputs": [
        {
          "internalType": "address",
          "name": "account",
          "type": "address"
        }
      ],
      "name": "OwnableUnauthorizedAccount",
      "type": "error"
    },
    {
      "anonymous": false,
      "inputs": [
        {
          "indexed": true,
          "internalType": "address",
          "name": "owner",
          "type": "address"
        },
        {
          "indexed": true,
          "internalType": "address",
          "name": "approved",
          "type": "address"
        },
        {
          "indexed": true,
          "internalType": "uint256",
          "name": "tokenId",
          "type": "uint256"
        }
      ],
      "name": "Approval",
      "type": "event"
    },
    {
      "anonymous": false,
      "inputs": [
        {
          "indexed": true,
          "internalType": "address",
          "name": "owner",
          "type": "address"
        },
        {
          "indexed": true,
          "internalType": "address",
          "name": "operator",
          "type": "address"
        },
        {
          "indexed": false,
          "internalType": "bool",
          "name": "approved",
          "type": "bool"
        }
      ],
      "name": "ApprovalForAll",
      "type": "event"
    },
    {
      "anonymous": false,
      "inputs": [
        {
          "indexed": false,
          "internalType": "uint256",
          "name": "_fromTokenId",
          "type": "uint256"
        },
        {
          "indexed": false,
          "internalType": "uint256",
          "name": "_toTokenId",
          "type": "uint256"
        }
      ],
      "name": "BatchMetadataUpdate",
      "type": "event"
    },
    {
      "anonymous": false,
      "inputs": [
        {
          "indexed": false,
          "internalType": "uint256",
          "name": "_tokenId",
          "type": "uint256"
        }
      ],
      "name": "MetadataUpdate",
      "type": "event"
    },
    {
      "anonymous": false,
      "inputs": [
        {
          "indexed": true,
          "internalType": "address",
          "name": "previousOwner",
          "type": "address"
        },
        {
          "indexed": true,
          "internalType": "address",
          "name": "newOwner",
          "type": "address"
        }
      ],
      "name": "OwnershipTransferred",
      "type": "event"
    },
    {
      "anonymous": false,
      "inputs": [
        {
          "indexed": false,
          "internalType": "address",
          "name": "account",
          "type": "address"
        }
      ],
      "name": "Paused",
      "type": "event"
    },
    {
      "anonymous": false,
      "inputs": [
        {
          "indexed": true,
          "internalType": "address",
          "name": "from",
          "type": "address"
        },
        {
          "indexed": true,
          "internalType": "address",
          "name": "to",
          "type": "address"
        },
        {
          "indexed": true,
          "internalType": "uint256",
          "name": "tokenId",
          "type": "uint256"
        }
      ],
      "name": "Transfer",
      "type": "event"
    },
    {
      "anonymous": false,
      "inputs": [
        {
          "indexed": false,
          "internalType": "address",
          "name": "account",
          "type": "address"
        }
      ],
      "name": "Unpaused",
      "type": "event"
    },
    {
      "inputs": [
        {
          "internalType": "address",
          "name": "to",
          "type": "address"
        },
        {
          "internalType": "uint256",
          "name": "tokenId",
          "type": "uint256"
        }
      ],
      "name": "approve",
      "outputs": [],
      "stateMutability": "nonpayable",
      "type": "function"
    },
    {
      "inputs": [
        {
          "internalType": "address",
          "name": "owner",
          "type": "address"
        }
      ],
      "name": "balanceOf",
      "outputs": [
        {
          "internalType": "uint256",
          "name": "",
          "type": "uint256"
        }
      ],
      "stateMutability": "view",
      "type": "function"
    },
    {
      "inputs": [],
      "name": "baseContractURI",
      "outputs": [
        {
          "internalType": "string",
          "name": "",
          "type": "string"
        }
      ],
      "stateMutability": "view",
      "type": "function"
    },
    {
      "inputs": [],
      "name": "baseExtension",
      "outputs": [
        {
          "internalType": "string",
          "name": "",
          "type": "string"
        }
      ],
      "stateMutability": "view",
      "type": "function"
    },
    {
      "inputs": [],
      "name": "baseURI",
      "outputs": [
        {
          "internalType": "string",
          "name": "",
          "type": "string"
        }
      ],
      "stateMutability": "view",
      "type": "function"
    },
    {
      "inputs": [
        {
          "internalType": "address[]",
          "name": "recipients",
          "type": "address[]"
        },
        {
          "internalType": "uint256[]",
          "name": "amounts",
          "type": "uint256[]"
        }
      ],
      "name": "bulkMint",
      "outputs": [],
      "stateMutability": "nonpayable",
      "type": "function"
    },
    {
      "inputs": [
        {
          "internalType": "uint256",
          "name": "tokenId",
          "type": "uint256"
        }
      ],
      "name": "getApproved",
      "outputs": [
        {
          "internalType": "address",
          "name": "",
          "type": "address"
        }
      ],
      "stateMutability": "view",
      "type": "function"
    },
    {
      "inputs": [
        {
          "internalType": "address",
          "name": "owner",
          "type": "address"
        },
        {
          "internalType": "address",
          "name": "operator",
          "type": "address"
        }
      ],
      "name": "isApprovedForAll",
      "outputs": [
        {
          "internalType": "bool",
          "name": "",
          "type": "bool"
        }
      ],
      "stateMutability": "view",
      "type": "function"
    },
    {
      "inputs": [],
      "name": "maxSupply",
      "outputs": [
        {
          "internalType": "uint256",
          "name": "",
          "type": "uint256"
        }
      ],
      "stateMutability": "view",
      "type": "function"
    },
    {
      "inputs": [
        {
          "internalType": "address",
          "name": "to",
          "type": "address"
        },
        {
          "internalType": "uint256",
          "name": "amount",
          "type": "uint256"
        }
      ],
      "name": "mint",
      "outputs": [],
      "stateMutability": "nonpayable",
      "type": "function"
    },
    {
      "inputs": [],
      "name": "mintLimit",
      "outputs": [
        {
          "internalType": "uint256",
          "name": "",
          "type": "uint256"
        }
      ],
      "stateMutability": "view",
      "type": "function"
    },
    {
      "inputs": [],
      "name": "name",
      "outputs": [
        {
          "internalType": "string",
          "name": "",
          "type": "string"
        }
      ],
      "stateMutability": "view",
      "type": "function"
    },
    {
      "inputs": [],
      "name": "owner",
      "outputs": [
        {
          "internalType": "address",
          "name": "",
          "type": "address"
        }
      ],
      "stateMutability": "view",
      "type": "function"
    },
    {
      "inputs": [
        {
          "internalType": "uint256",
          "name": "tokenId",
          "type": "uint256"
        }
      ],
      "name": "ownerOf",
      "outputs": [
        {
          "internalType": "address",
          "name": "",
          "type": "address"
        }
      ],
      "stateMutability": "view",
      "type": "function"
    },
    {
      "inputs": [],
      "name": "pause",
      "outputs": [],
      "stateMutability": "nonpayable",
      "type": "function"
    },
    {
      "inputs": [],
      "name": "paused",
      "outputs": [
        {
          "internalType": "bool",
          "name": "",
          "type": "bool"
        }
      ],
      "stateMutability": "view",
      "type": "function"
    },
    {
      "inputs": [],
      "name": "renounceOwnership",
      "outputs": [],
      "stateMutability": "nonpayable",
      "type": "function"
    },
    {
      "inputs": [
        {
          "internalType": "address",
          "name": "from",
          "type": "address"
        },
        {
          "internalType": "address",
          "name": "to",
          "type": "address"
        },
        {
          "internalType": "uint256",
          "name": "tokenId",
          "type": "uint256"
        }
      ],
      "name": "safeTransferFrom",
      "outputs": [],
      "stateMutability": "nonpayable",
      "type": "function"
    },
    {
      "inputs": [
        {
          "internalType": "address",
          "name": "from",
          "type": "address"
        },
        {
          "internalType": "address",
          "name": "to",
          "type": "address"
        },
        {
          "internalType": "uint256",
          "name": "tokenId",
          "type": "uint256"
        },
        {
          "internalType": "bytes",
          "name": "data",
          "type": "bytes"
        }
      ],
      "name": "safeTransferFrom",
      "outputs": [],
      "stateMutability": "nonpayable",
      "type": "function"
    },
    {
      "inputs": [
        {
          "internalType": "address",
          "name": "operator",
          "type": "address"
        },
        {
          "internalType": "bool",
          "name": "approved",
          "type": "bool"
        }
      ],
      "name": "setApprovalForAll",
      "outputs": [],
      "stateMutability": "nonpayable",
      "type": "function"
    },
    {
      "inputs": [
        {
          "internalType": "string",
          "name": "_newBaseExtension",
          "type": "string"
        }
      ],
      "name": "setBaseExtension",
      "outputs": [],
      "stateMutability": "nonpayable",
      "type": "function"
    },
    {
      "inputs": [
        {
          "internalType": "string",
          "name": "_newBaseURI",
          "type": "string"
        }
      ],
      "name": "setBaseURI",
      "outputs": [],
      "stateMutability": "nonpayable",
      "type": "function"
    },
    {
      "inputs": [
        {
          "internalType": "string",
          "name": "_newBaseContractURI",
          "type": "string"
        }
      ],
      "name": "setContractURI",
      "outputs": [],
      "stateMutability": "nonpayable",
      "type": "function"
    },
    {
      "inputs": [
        {
          "internalType": "uint256",
          "name": "_newMaxSupply",
          "type": "uint256"
        }
      ],
      "name": "setMaxSupply",
      "outputs": [],
      "stateMutability": "nonpayable",
      "type": "function"
    },
    {
      "inputs": [
        {
          "internalType": "uint256",
          "name": "_newMintLimit",
          "type": "uint256"
        }
      ],
      "name": "setMintLimit",
      "outputs": [],
      "stateMutability": "nonpayable",
      "type": "function"
    },
    {
      "inputs": [
        {
          "internalType": "bytes4",
          "name": "interfaceId",
          "type": "bytes4"
        }
      ],
      "name": "supportsInterface",
      "outputs": [
        {
          "internalType": "bool",
          "name": "",
          "type": "bool"
        }
      ],
      "stateMutability": "view",
      "type": "function"
    },
    {
      "inputs": [],
      "name": "symbol",
      "outputs": [
        {
          "internalType": "string",
          "name": "",
          "type": "string"
        }
      ],
      "stateMutability": "view",
      "type": "function"
    },
    {
      "inputs": [
        {
          "internalType": "uint256",
          "name": "tokenId",
          "type": "uint256"
        }
      ],
      "name": "tokenURI",
      "outputs": [
        {
          "internalType": "string",
          "name": "",
          "type": "string"
        }
      ],
      "stateMutability": "view",
      "type": "function"
    },
    {
      "inputs": [],
      "name": "totalSupply",
      "outputs": [
        {
          "internalType": "uint256",
          "name": "",
          "type": "uint256"
        }
      ],
      "stateMutability": "view",
      "type": "function"
    },
    {
      "inputs": [
        {
          "internalType": "address",
          "name": "from",
          "type": "address"
        },
        {
          "internalType": "address",
          "name": "to",
          "type": "address"
        },
        {
          "internalType": "uint256",
          "name": "tokenId",
          "type": "uint256"
        }
      ],
      "name": "transferFrom",
      "outputs": [],
      "stateMutability": "nonpayable",
      "type": "function"
    },
    {
      "inputs": [
        {
          "internalType": "address",
          "name": "newOwner",
          "type": "address"
        }
      ],
      "name": "transferOwnership",
      "outputs": [],
      "stateMutability": "nonpayable",
      "type": "function"
    },
    {
      "inputs": [],
      "name": "unpause",
      "outputs": [],
      "stateMutability": "nonpayable",
      "type": "function"
    },
    {
      "inputs": [],
      "name": "withdraw",
      "outputs": [],
      "stateMutability": "nonpayable",
      "type": "function"
    }
  ],
  "bytecode": "0x60806040523480156200001157600080fd5b506040516200223338038062002233833981016040819052620000349162000299565b338787600062000045838262000400565b50600162000054828262000400565b50506007805460ff19169055506001600160a01b0381166200009157604051631e4fbdf760e01b8152600060048201526024015b60405180910390fd5b6200009c8162000124565b50620000a8856200017e565b600b620000b6858262000400565b50600c839055600d8290556001811115620001145760405162461bcd60e51b815260206004820152601860248201527f496e76616c696420737461727457697468546f6b656e49640000000000000000604482015260640162000088565b60085550620004cc945050505050565b600780546001600160a01b03838116610100818102610100600160a81b031985161790945560405193909204169182907f8be0079c531659141344cd1fd0a4f28419497f9722a3daafe3b4186f6b6457e090600090a35050565b620001886200019a565b600a62000196828262000400565b5050565b6007546001600160a01b03610100909104163314620001cf5760405163118cdaa760e01b815233600482015260240162000088565b565b634e487b7160e01b600052604160045260246000fd5b600082601f830112620001f957600080fd5b81516001600160401b0380821115620002165762000216620001d1565b604051601f8301601f19908116603f01168101908282118183101715620002415762000241620001d1565b81604052838152602092508660208588010111156200025f57600080fd5b600091505b8382101562000283578582018301518183018401529082019062000264565b6000602085830101528094505050505092915050565b600080600080600080600060e0888a031215620002b557600080fd5b87516001600160401b0380821115620002cd57600080fd5b620002db8b838c01620001e7565b985060208a0151915080821115620002f257600080fd5b620003008b838c01620001e7565b975060408a01519150808211156200031757600080fd5b620003258b838c01620001e7565b965060608a01519150808211156200033c57600080fd5b506200034b8a828b01620001e7565b9450506080880151925060a0880151915060c0880151905092959891949750929550565b600181811c908216806200038457607f821691505b602082108103620003a557634e487b7160e01b600052602260045260246000fd5b50919050565b601f821115620003fb576000816000526020600020601f850160051c81016020861015620003d65750805b601f850160051c820191505b81811015620003f757828155600101620003e2565b5050505b505050565b81516001600160401b038111156200041c576200041c620001d1565b62000434816200042d84546200036f565b84620003ab565b602080601f8311600181146200046c5760008415620004535750858301515b600019600386901b1c1916600185901b178555620003f7565b600085815260208120601f198616915b828110156200049d578886015182559484019460019091019084016200047c565b5085821015620004bc5787850151600019600388901b60f8161c191681555b5050505050600190811b01905550565b611d5780620004dc6000396000f3fe608060405234801561001057600080fd5b50600436106101fb5760003560e01c806370a082311161011a5780639e6a1d7d116100ad578063c87b56dd1161007c578063c87b56dd146103dd578063d5abeb01146103f0578063da3ef23f146103f9578063e985e9c51461040c578063f2fde38b1461041f57600080fd5b80639e6a1d7d1461039c578063a22cb465146103af578063b88d4fde146103c2578063c6682862146103d557600080fd5b80638da5cb5b116100e95780638da5cb5b14610362578063938e3d7b1461037857806395d89b411461038b578063996517cf1461039357600080fd5b806370a0823114610337578063715018a61461034a57806380f2152e146103525780638456cb591461035a57600080fd5b806340c10f19116101925780636352211e116101615780636352211e146102f65780636ae459bd146103095780636c0360eb1461031c5780636f8b44b01461032457600080fd5b806340c10f19146102b257806342842e0e146102c557806355f804b3146102d85780635c975abb146102eb57600080fd5b806318160ddd116101ce57806318160ddd1461027d57806323b872dd1461028f5780633ccfd60b146102a25780633f4ba83a146102aa57600080fd5b806301ffc9a71461020057806306fdde0314610228578063081812fc1461023d578063095ea7b314610268575b600080fd5b61021361020e36600461169d565b610432565b60405190151581526020015b60405180910390f35b610230610443565b60405161021f9190611711565b61025061024b366004611724565b6104d5565b6040516001600160a01b03909116815260200161021f565b61027b610276366004611759565b6104fe565b005b6008545b60405190815260200161021f565b61027b61029d366004611783565b61050d565b61027b61059d565b61027b6105e8565b61027b6102c0366004611759565b6105fa565b61027b6102d3366004611783565b61072f565b61027b6102e636600461184b565b61074a565b60075460ff16610213565b610250610304366004611724565b61075e565b61027b6103173660046118e0565b610769565b6102306109db565b61027b610332366004611724565b610a69565b61028161034536600461194c565b610a76565b61027b610abe565b610230610ad0565b61027b610add565b60075461010090046001600160a01b0316610250565b61027b61038636600461184b565b610aed565b610230610b01565b610281600d5481565b61027b6103aa366004611724565b610b10565b61027b6103bd366004611967565b610b1d565b61027b6103d03660046119a3565b610b28565b610230610b40565b6102306103eb366004611724565b610b4d565b610281600c5481565b61027b61040736600461184b565b610d32565b61021361041a366004611a1f565b610d46565b61027b61042d36600461194c565b610d74565b600061043d82610daf565b92915050565b60606000805461045290611a52565b80601f016020809104026020016040519081016040528092919081815260200182805461047e90611a52565b80156104cb5780601f106104a0576101008083540402835291602001916104cb565b820191906000526020600020905b8154815290600101906020018083116104ae57829003601f168201915b5050505050905090565b60006104e082610dd4565b506000828152600460205260409020546001600160a01b031661043d565b610509828233610e0d565b5050565b6001600160a01b03821661053c57604051633250574960e11b8152600060048201526024015b60405180910390fd5b6000610549838333610e1a565b9050836001600160a01b0316816001600160a01b031614610597576040516364283d7b60e01b81526001600160a01b0380861660048301526024820184905282166044820152606401610533565b50505050565b6105a5610e2f565b6007546040516001600160a01b0361010090920491909116904780156108fc02916000818181858888f193505050501580156105e5573d6000803e3d6000fd5b50565b6105f0610e2f565b6105f8610e62565b565b610602610eb4565b600081116106435760405162461bcd60e51b815260206004820152600e60248201526d125b9d985b1a5908185b5bdd5b9d60921b6044820152606401610533565b600c54816008546106549190611aa2565b106106965760405162461bcd60e51b815260206004820152601260248201527113585e081cdd5c1c1b1e481c995858da195960721b6044820152606401610533565b600d54156106f857600d54816106ab84610a76565b6106b59190611aa2565b11156106f85760405162461bcd60e51b8152602060048201526012602482015271115e18d959591cc81b5a5b9d081b1a5b5a5d60721b6044820152606401610533565b60005b8181101561072a576008805461072291859190600061071983611ab5565b91905055610ed8565b6001016106fb565b505050565b61072a83838360405180602001604052806000815250610b28565b610752610e2f565b600a6105098282611b16565b600061043d82610dd4565b610771610e2f565b610779610eb4565b8281146107d75760405162461bcd60e51b815260206004820152602660248201527f526563697069656e747320616e6420616d6f756e7473206c656e677468206d696044820152650e6dac2e8c6d60d31b6064820152608401610533565b6000805b8281101561086a5760008484838181106107f7576107f7611bd6565b905060200201351161083c5760405162461bcd60e51b815260206004820152600e60248201526d125b9d985b1a5908185b5bdd5b9d60921b6044820152606401610533565b83838281811061084e5761084e611bd6565b90506020020135826108609190611aa2565b91506001016107db565b50600c548160085461087c9190611aa2565b11156108bf5760405162461bcd60e51b815260206004820152601260248201527113585e081cdd5c1c1b1e481c995858da195960721b6044820152606401610533565b60005b848110156109d357600d541561096557600d548484838181106108e7576108e7611bd6565b9050602002013561091888888581811061090357610903611bd6565b9050602002016020810190610345919061194c565b6109229190611aa2565b11156109655760405162461bcd60e51b8152602060048201526012602482015271115e18d959591cc81b5a5b9d081b1a5b5a5d60721b6044820152606401610533565b60005b84848381811061097a5761097a611bd6565b905060200201358110156109ca576109c287878481811061099d5761099d611bd6565b90506020020160208101906109b2919061194c565b6008805490600061071983611ab5565b600101610968565b506001016108c2565b505050505050565b600a80546109e890611a52565b80601f0160208091040260200160405190810160405280929190818152602001828054610a1490611a52565b8015610a615780601f10610a3657610100808354040283529160200191610a61565b820191906000526020600020905b815481529060010190602001808311610a4457829003601f168201915b505050505081565b610a71610e2f565b600c55565b60006001600160a01b038216610aa2576040516322718ad960e21b815260006004820152602401610533565b506001600160a01b031660009081526003602052604090205490565b610ac6610e2f565b6105f86000610ef2565b600980546109e890611a52565b610ae5610e2f565b6105f8610f4c565b610af5610e2f565b60096105098282611b16565b60606001805461045290611a52565b610b18610e2f565b600d55565b610509338383610f89565b610b3384848461050d565b6105973385858585611028565b600b80546109e890611a52565b60606008548210610b965760405162461bcd60e51b8152602060048201526013602482015272151bdad95b881251081a5cc81a5b9d985b1a59606a1b6044820152606401610533565b604080518082019091526001808252602f60f81b6020909201829052600a80549091908290610bc490611a52565b610bcf929150611bec565b8154610bda90611a52565b8110610be857610be8611bd6565b815460011615610c075790600052602060002090602091828204019190065b9054901a600160f81b026001600160f81b03191614610cb257600a8054610c2d90611a52565b80601f0160208091040260200160405190810160405280929190818152602001828054610c5990611a52565b8015610ca65780601f10610c7b57610100808354040283529160200191610ca6565b820191906000526020600020905b815481529060010190602001808311610c8957829003601f168201915b50505050509050919050565b6000600a8054610cc190611a52565b905011610cdd576040518060200160405280600081525061043d565b600a610d09610ced600585611bff565b15610d0257610cfd600585611bff565b611151565b6005611151565b600b604051602001610d1d93929190611c94565b60405160208183030381529060405292915050565b610d3a610e2f565b600b6105098282611b16565b6001600160a01b03918216600090815260056020908152604080832093909416825291909152205460ff1690565b610d7c610e2f565b6001600160a01b038116610da657604051631e4fbdf760e01b815260006004820152602401610533565b6105e581610ef2565b60006001600160e01b03198216632483248360e11b148061043d575061043d826111e4565b6000818152600260205260408120546001600160a01b03168061043d57604051637e27328960e01b815260048101849052602401610533565b61072a8383836001611234565b6000610e2784848461133a565b949350505050565b6007546001600160a01b036101009091041633146105f85760405163118cdaa760e01b8152336004820152602401610533565b610e6a61134f565b6007805460ff191690557f5db9ee0a495bf2e6ff9c91a7834c1ba4fdd244a5e8aa4e537bd38aeae4b073aa335b6040516001600160a01b03909116815260200160405180910390a1565b60075460ff16156105f85760405163d93c066560e01b815260040160405180910390fd5b610509828260405180602001604052806000815250611372565b600780546001600160a01b03838116610100818102610100600160a81b031985161790945560405193909204169182907f8be0079c531659141344cd1fd0a4f28419497f9722a3daafe3b4186f6b6457e090600090a35050565b610f54610eb4565b6007805460ff191660011790557f62e78cea01bee320cd4e420270b5ea74000d11b0c9f74754ebdbfc544b05a258610e973390565b6001600160a01b038216610fbb57604051630b61174360e31b81526001600160a01b0383166004820152602401610533565b6001600160a01b03838116600081815260056020908152604080832094871680845294825291829020805460ff191686151590811790915591519182527f17307eab39ab6107e8899845ad3d59bd9653f200f220920489ca2b5937696c31910160405180910390a3505050565b6001600160a01b0383163b1561114a57604051630a85bd0160e11b81526001600160a01b0384169063150b7a029061106a908890889087908790600401611cc7565b6020604051808303816000875af19250505080156110a5575060408051601f3d908101601f191682019092526110a291810190611d04565b60015b61110e573d8080156110d3576040519150601f19603f3d011682016040523d82523d6000602084013e6110d8565b606091505b50805160000361110657604051633250574960e11b81526001600160a01b0385166004820152602401610533565b805181602001fd5b6001600160e01b03198116630a85bd0160e11b146109d357604051633250574960e11b81526001600160a01b0385166004820152602401610533565b5050505050565b6060600061115e8361138a565b600101905060008167ffffffffffffffff81111561117e5761117e6117bf565b6040519080825280601f01601f1916602001820160405280156111a8576020820181803683370190505b5090508181016020015b600019016f181899199a1a9b1b9c1cb0b131b232b360811b600a86061a8153600a85049450846111b257509392505050565b60006001600160e01b031982166380ac58cd60e01b148061121557506001600160e01b03198216635b5e139f60e01b145b8061043d57506301ffc9a760e01b6001600160e01b031983161461043d565b808061124857506001600160a01b03821615155b1561130a57600061125884610dd4565b90506001600160a01b038316158015906112845750826001600160a01b0316816001600160a01b031614155b801561129757506112958184610d46565b155b156112c05760405163a9fbf51f60e01b81526001600160a01b0384166004820152602401610533565b81156113085783856001600160a01b0316826001600160a01b03167f8c5be1e5ebec7d5bd14f71427d1e84f3dd0314c0f7b2291e5b200ac8c7c3b92560405160405180910390a45b505b5050600090815260046020526040902080546001600160a01b0319166001600160a01b0392909216919091179055565b6000611344610eb4565b610e27848484611462565b60075460ff166105f857604051638dfc202b60e01b815260040160405180910390fd5b61137c838361155b565b61072a336000858585611028565b60008072184f03e93ff9f4daa797ed6e38ed64bf6a1f0160401b83106113c95772184f03e93ff9f4daa797ed6e38ed64bf6a1f0160401b830492506040015b6d04ee2d6d415b85acef810000000083106113f5576d04ee2d6d415b85acef8100000000830492506020015b662386f26fc10000831061141357662386f26fc10000830492506010015b6305f5e100831061142b576305f5e100830492506008015b612710831061143f57612710830492506004015b60648310611451576064830492506002015b600a831061043d5760010192915050565b6000828152600260205260408120546001600160a01b039081169083161561148f5761148f8184866115c0565b6001600160a01b038116156114cd576114ac600085600080611234565b6001600160a01b038116600090815260036020526040902080546000190190555b6001600160a01b038516156114fc576001600160a01b0385166000908152600360205260409020805460010190555b60008481526002602052604080822080546001600160a01b0319166001600160a01b0389811691821790925591518793918516917fddf252ad1be2c89b69c2b068fc378daa952ba7f163c4a11628f55a4df523b3ef91a4949350505050565b6001600160a01b03821661158557604051633250574960e11b815260006004820152602401610533565b600061159383836000610e1a565b90506001600160a01b0381161561072a576040516339e3563760e11b815260006004820152602401610533565b6115cb838383611624565b61072a576001600160a01b0383166115f957604051637e27328960e01b815260048101829052602401610533565b60405163177e802f60e01b81526001600160a01b038316600482015260248101829052604401610533565b60006001600160a01b03831615801590610e275750826001600160a01b0316846001600160a01b0316148061165e575061165e8484610d46565b80610e275750506000908152600460205260409020546001600160a01b03908116911614919050565b6001600160e01b0319811681146105e557600080fd5b6000602082840312156116af57600080fd5b81356116ba81611687565b9392505050565b60005b838110156116dc5781810151838201526020016116c4565b50506000910152565b600081518084526116fd8160208601602086016116c1565b601f01601f19169290920160200192915050565b6020815260006116ba60208301846116e5565b60006020828403121561173657600080fd5b5035919050565b80356001600160a01b038116811461175457600080fd5b919050565b6000806040838503121561176c57600080fd5b6117758361173d565b946020939093013593505050565b60008060006060848603121561179857600080fd5b6117a18461173d565b92506117af6020850161173d565b9150604084013590509250925092565b634e487b7160e01b600052604160045260246000fd5b600067ffffffffffffffff808411156117f0576117f06117bf565b604051601f8501601f19908116603f01168101908282118183101715611818576118186117bf565b8160405280935085815286868601111561183157600080fd5b858560208301376000602087830101525050509392505050565b60006020828403121561185d57600080fd5b813567ffffffffffffffff81111561187457600080fd5b8201601f8101841361188557600080fd5b610e27848235602084016117d5565b60008083601f8401126118a657600080fd5b50813567ffffffffffffffff8111156118be57600080fd5b6020830191508360208260051b85010111156118d957600080fd5b9250929050565b600080600080604085870312156118f657600080fd5b843567ffffffffffffffff8082111561190e57600080fd5b61191a88838901611894565b9096509450602087013591508082111561193357600080fd5b5061194087828801611894565b95989497509550505050565b60006020828403121561195e57600080fd5b6116ba8261173d565b6000806040838503121561197a57600080fd5b6119838361173d565b91506020830135801515811461199857600080fd5b809150509250929050565b600080600080608085870312156119b957600080fd5b6119c28561173d565b93506119d06020860161173d565b925060408501359150606085013567ffffffffffffffff8111156119f357600080fd5b8501601f81018713611a0457600080fd5b611a13878235602084016117d5565b91505092959194509250565b60008060408385031215611a3257600080fd5b611a3b8361173d565b9150611a496020840161173d565b90509250929050565b600181811c90821680611a6657607f821691505b602082108103611a8657634e487b7160e01b600052602260045260246000fd5b50919050565b634e487b7160e01b600052601160045260246000fd5b8082018082111561043d5761043d611a8c565b600060018201611ac757611ac7611a8c565b5060010190565b601f82111561072a576000816000526020600020601f850160051c81016020861015611af75750805b601f850160051c820191505b818110156109d357828155600101611b03565b815167ffffffffffffffff811115611b3057611b306117bf565b611b4481611b3e8454611a52565b84611ace565b602080601f831160018114611b795760008415611b615750858301515b600019600386901b1c1916600185901b1785556109d3565b600085815260208120601f198616915b82811015611ba857888601518255948401946001909101908401611b89565b5085821015611bc65787850151600019600388901b60f8161c191681555b5050505050600190811b01905550565b634e487b7160e01b600052603260045260246000fd5b8181038181111561043d5761043d611a8c565b600082611c1c57634e487b7160e01b600052601260045260246000fd5b500690565b60008154611c2e81611a52565b60018281168015611c465760018114611c5b57611c8a565b60ff1984168752821515830287019450611c8a565b8560005260208060002060005b85811015611c815781548a820152908401908201611c68565b50505082870194505b5050505092915050565b6000611ca08286611c21565b8451611cb08183602089016116c1565b611cbc81830186611c21565b979650505050505050565b6001600160a01b0385811682528416602082015260408101839052608060608201819052600090611cfa908301846116e5565b9695505050505050565b600060208284031215611d1657600080fd5b81516116ba8161168756fea2646970667358221220da22c73378fa07141e2601912f30a0a82aeaf1ce3480e2127ef81bfce066eb6a64736f6c63430008160033",
  "linkReferences": {},
  "deployedLinkReferences": {}
}